{
  "contractName": "AdvertisementAuction",
  "abi": [
    {
      "inputs": [],
      "stateMutability": "nonpayable",
      "type": "constructor"
    },
    {
      "inputs": [
        {
          "internalType": "uint256",
          "name": "_amount",
          "type": "uint256"
        },
        {
          "internalType": "string",
          "name": "_image",
          "type": "string"
        },
        {
          "internalType": "string",
          "name": "_text",
          "type": "string"
        }
      ],
      "name": "set_advertisement_data",
      "outputs": [],
      "stateMutability": "nonpayable",
      "type": "function"
    },
    {
      "inputs": [],
      "name": "get_advertisement_data",
      "outputs": [
        {
          "internalType": "string",
          "name": "",
          "type": "string"
        },
        {
          "internalType": "string",
          "name": "",
          "type": "string"
        }
      ],
      "stateMutability": "view",
      "type": "function",
      "constant": true
    },
    {
      "inputs": [],
      "name": "get_advertisement_image",
      "outputs": [
        {
          "internalType": "string",
          "name": "",
          "type": "string"
        }
      ],
      "stateMutability": "view",
      "type": "function",
      "constant": true
    },
    {
      "inputs": [],
      "name": "get_advertisement_text",
      "outputs": [
        {
          "internalType": "string",
          "name": "",
          "type": "string"
        }
      ],
      "stateMutability": "view",
      "type": "function",
      "constant": true
    },
    {
      "inputs": [],
      "name": "get_contract_owner_addr",
      "outputs": [
        {
          "internalType": "address",
          "name": "",
          "type": "address"
        }
      ],
      "stateMutability": "view",
      "type": "function",
      "constant": true
    },
    {
      "inputs": [],
      "name": "get_advertisement_amount",
      "outputs": [
        {
          "internalType": "uint256",
          "name": "",
          "type": "uint256"
        }
      ],
      "stateMutability": "view",
      "type": "function",
      "constant": true
    }
  ],
  "bytecode": "0x608060405234801561001057600080fd5b50600080819055506040518060400160405280601b81526020017f4164766572746973656d656e742041756374696f6e20496d6167650000000000815250600190805190602001906100639291906100f6565b506040518060400160405280601a81526020017f4164766572746973656d656e742041756374696f6e2054657874000000000000815250600290805190602001906100af9291906100f6565b5033600360006101000a81548173ffffffffffffffffffffffffffffffffffffffff021916908373ffffffffffffffffffffffffffffffffffffffff1602179055506101fa565b82805461010290610199565b90600052602060002090601f016020900481019282610124576000855561016b565b82601f1061013d57805160ff191683800117855561016b565b8280016001018555821561016b579182015b8281111561016a57825182559160200191906001019061014f565b5b509050610178919061017c565b5090565b5b8082111561019557600081600090555060010161017d565b5090565b600060028204905060018216806101b157607f821691505b602082108114156101c5576101c46101cb565b5b50919050565b7f4e487b7100000000000000000000000000000000000000000000000000000000600052602260045260246000fd5b610829806102096000396000f3fe608060405234801561001057600080fd5b50600436106100625760003560e01c806319e8099f1461006757806337e0db5c146100855780638611d283146100a1578063ac93c95b146100bf578063b6d1e082146100dd578063c5cbe07e146100fb575b600080fd5b61006f61011a565b60405161007c9190610630565b60405180910390f35b61009f600480360381019061009a9190610510565b610144565b005b6100a96101ba565b6040516100b6919061064b565b60405180910390f35b6100c761024c565b6040516100d4919061064b565b60405180910390f35b6100e56102de565b6040516100f291906106c4565b60405180910390f35b6101036102e7565b60405161011192919061066d565b60405180910390f35b6000600360009054906101000a900473ffffffffffffffffffffffffffffffffffffffff16905090565b6000548511610188576040517f08c379a000000000000000000000000000000000000000000000000000000000815260040161017f906106a4565b60405180910390fd5b846000819055508383600191906101a092919061040e565b508181600291906101b292919061040e565b505050505050565b6060600280546101c99061076a565b80601f01602080910402602001604051908101604052809291908181526020018280546101f59061076a565b80156102425780601f1061021757610100808354040283529160200191610242565b820191906000526020600020905b81548152906001019060200180831161022557829003601f168201915b5050505050905090565b60606001805461025b9061076a565b80601f01602080910402602001604051908101604052809291908181526020018280546102879061076a565b80156102d45780601f106102a9576101008083540402835291602001916102d4565b820191906000526020600020905b8154815290600101906020018083116102b757829003601f168201915b5050505050905090565b60008054905090565b606080600160028180546102fa9061076a565b80601f01602080910402602001604051908101604052809291908181526020018280546103269061076a565b80156103735780601f1061034857610100808354040283529160200191610373565b820191906000526020600020905b81548152906001019060200180831161035657829003601f168201915b505050505091508080546103869061076a565b80601f01602080910402602001604051908101604052809291908181526020018280546103b29061076a565b80156103ff5780601f106103d4576101008083540402835291602001916103ff565b820191906000526020600020905b8154815290600101906020018083116103e257829003601f168201915b50505050509050915091509091565b82805461041a9061076a565b90600052602060002090601f01602090048101928261043c5760008555610483565b82601f1061045557803560ff1916838001178555610483565b82800160010185558215610483579182015b82811115610482578235825591602001919060010190610467565b5b5090506104909190610494565b5090565b5b808211156104ad576000816000905550600101610495565b5090565b60008083601f8401126104c357600080fd5b8235905067ffffffffffffffff8111156104dc57600080fd5b6020830191508360018202830111156104f457600080fd5b9250929050565b60008135905061050a816107dc565b92915050565b60008060008060006060868803121561052857600080fd5b6000610536888289016104fb565b955050602086013567ffffffffffffffff81111561055357600080fd5b61055f888289016104b1565b9450945050604086013567ffffffffffffffff81111561057e57600080fd5b61058a888289016104b1565b92509250509295509295909350565b6105a2816106fb565b82525050565b60006105b3826106df565b6105bd81856106ea565b93506105cd818560208601610737565b6105d6816107cb565b840191505092915050565b60006105ee601e836106ea565b91507f536f727279212077652063616e27742061647665727469736520796f752e00006000830152602082019050919050565b61062a8161072d565b82525050565b60006020820190506106456000830184610599565b92915050565b6000602082019050818103600083015261066581846105a8565b905092915050565b6000604082019050818103600083015261068781856105a8565b9050818103602083015261069b81846105a8565b90509392505050565b600060208201905081810360008301526106bd816105e1565b9050919050565b60006020820190506106d96000830184610621565b92915050565b600081519050919050565b600082825260208201905092915050565b60006107068261070d565b9050919050565b600073ffffffffffffffffffffffffffffffffffffffff82169050919050565b6000819050919050565b60005b8381101561075557808201518184015260208101905061073a565b83811115610764576000848401525b50505050565b6000600282049050600182168061078257607f821691505b602082108114156107965761079561079c565b5b50919050565b7f4e487b7100000000000000000000000000000000000000000000000000000000600052602260045260246000fd5b6000601f19601f8301169050919050565b6107e58161072d565b81146107f057600080fd5b5056fea2646970667358221220d115015abde4bee7b498cad66c01af3dfb7628fde16704c451f9e536cdbb41f764736f6c63430008000033",
  "immutableReferences": {},
  "source": "// SPDX-License-Identifier: MIT\n// solium-disable linebreak-style\npragma solidity >= 0.4.22 < 0.9.0;\n\ncontract AdvertisementAuction {\n    uint amount;\n    string image;\n    string text;\n    address contract_onwer;\n    address advrt_owner;\n\n    constructor() {\n        amount = 0;\n        image = \"Advertisement Auction Image\";\n        text = \"Advertisement Auction Text\";\n        contract_onwer = msg.sender;\n    }\n\n    function set_advertisement_data(uint _amount, string calldata _image, string calldata _text) public {\n        require(_amount > amount, \"Sorry! we can't advertise you.\");\n        amount = _amount;\n        image = _image;\n        text = _text;\n    }\n\n    function get_advertisement_data() public view returns(string memory, string memory) {\n        return(image, text);\n    }\n\n    function get_advertisement_image() public view returns(string memory) {\n        return image;\n    }\n\n    function get_advertisement_text() public view returns(string memory) {\n        return text;\n    }\n\n    function get_contract_owner_addr() public view returns(address) {\n        return contract_onwer;\n    }\n\n    function get_advertisement_amount() public view returns(uint) {\n        return amount;\n    }\n\n}",
  "sourcePath": "E:\\3 - Al Nafi\\Blockchain\\Labs\\side_projects\\advertisement_auction\\contracts\\AdvertisementAuction.sol",
  "compiler": {
    "name": "solc",
    "version": "0.8.0+commit.c7dfd78e.Emscripten.clang"
  },
  "schemaVersion": "3.4.3",
  "updatedAt": "2021-12-26T14:17:52.455Z",
  "networkType": "ethereum",
  "devdoc": {
    "kind": "dev",
    "methods": {},
    "version": 1
  },
  "userdoc": {
    "kind": "user",
    "methods": {},
    "version": 1
  }
}